:100000008A150A12372C00000900A00803191028CD
:100010001720A003000000000000000000000528D9
:10002000A108031908001720A103A00305280C301C
:10003000A500A50B1928000000001230A200A20B99
:1000400026282820282000000000080028201F283B
:100050000D30A400A40B2A2800000800A80B2E28AD
:1000600008000130A8020001031C013EA902031C84
:10007000080031282408A007031849202508A107F3
:1000800003184C202608A20703184F202708A307AF
:100090000800A10A031D0800A20A031D0800A30A04
:1000A000080054203A200800A409A509A609A709B8
:1000B000A40A031D0800A50A031D0800A60A031DC3
:1000C0000800A70A0800A001A101A201A30183134F
:1000D0002C3084000430AA006E288A2000183A20B0
:1000E0008A2080183A208A2000193A208A20801914
:1000F0003A208A20001A3A208A20801A3A208A2040
:10010000001B3A208A20801B3A20840AAA03031D80
:100110006D2808000310A40DA50DA60DA70D08005D
:10012000AC01AD01AE01AF018313A71F98280800F1
:100130005420A71B9C280800AB01271FA228AB0A4C
:100140008A209D282308B3002208B2002108B100AC
:100150002008B0003A20A31FB6283308A3003208B5
:10016000A2003108A1003008A000D7282B08073CC6
:10017000031CBC282C30C9282B080F3C031CC228A8
:100180002D30C9282B08173C031CC8282E30C9283D
:100190002F3084002B080739AA000130A900031969
:1001A000D5280310A90DAA0BD1282908800403140F
:1001B000A70CA60CA50CA40CAB03AB1FA22808002F
:1001C000A00DA00DA00D3830A005C13020049F0067
:1001D0000530A8002E201F151F19EC280C131F1026
:1001E0000800881408118600F9201F30A8002E206E
:1001F0000800881500008811000008008810081108
:100200008600F920F230A8000130A9003120080052
:1002100083135A308400000803190800840AF1206F
:100220000B290C1A14291129990008008C1A192974
:1002300016291A08080083135A308400000803198D
:100240000800840A11211E29AA0083136230A80025
:100250000030A90031206B0884000930AB00031086
:100260003721AA0CAB0B30290314372108000008F2
:100270006C04031C6C06800084170009841380053D
:100280006D08A8002E2008005A30A7008313270805
:100290008400000803190800A70A24214629963083
:1002A000BC00C6018A110A12BB1F5F29B909BA092D
:1002B000BB09B90A0319BA0A0319BB0AC617C50153
:1002C0003B088A110A12031D7A293A08BB00390833
:1002D000BA00B901C5153B088A110A12031D7A2913
:1002E0003A08BB00BA01C51145163B088A110A122B
:1002F0000319072A4508BC028A110A12031D031CB0
:10030000E22903108A110A12BB1B042AB90DBA0D87
:10031000BB0D8A110A12BC0B82298A110A12E2292A
:100320009E30BC00C6018A110A12BB1FA329B8095E
:10033000B909BA09BB09B80A0319B90A0319BA0AF3
:100340000319BB0AC617C5013B088A110A12031D0F
:10035000CB293A08BB003908BA003808B900B801FF
:10036000C5153B088A110A12031DCB293A08BB00A8
:100370003908BA00B901C51145163B088A110A129D
:10038000031DCB293A08BB00BA01C5153B088A11E9
:100390000A120319072A4508BC028A110A12031D12
:1003A000031CE22903108A110A12BB1B0D2AB80D87
:1003B000B90DBA0DBB0D8A110A12BC0BD3298A11D3
:1003C0000A12E2294715C71FFF340130BC00BB01E8
:1003D000BA01B901C60DBB0CFF34C714C71FFF34E7
:1003E000FF30BC00BB00BA00B900C60DBB0CFF3427
:1003F0004714C71FFF34BB01C61FFF30BB00BA0044
:10040000B900C60DBB0CFF34C61FBB130034BB01C3
:10041000BA01B901B801BC0100348A110A12471BA4
:10042000391C042A8A110A12B81F042AB90A0319AE
:10043000BA0A0319BB0A8A110A12031D042ABB0C4B
:10044000BA0CB90CBC0A8A110A120319ED298A11D7
:100450000A12042A3C08031900343B08C600BB17E3
:100460009630BC028A110A12BC1FF829BC09BC0ACA
:1004700008303C028A110A12031C5F2ABC00B90D25
:100480003A08B9003B08BA00BB0108303C028A11A7
:100490000A12031C5F2ABC00B90D3A08B900BA0160
:1004A00008303C028A110A12031C5F2ABC00B90DF5
:1004B000B9013C08031D03108A110A126C2A3C087A
:1004C0008A110A1203196C2A0310BB0CBA0CB90C5E
:1004D0008A110A12BC0B642A8A110A12471B391CA2
:1004E0007E2A8A110A12031C7E2AB90A0319BA0A43
:1004F0000319BB0A8A110A12BB1BF829C61F003454
:10050000BB09BA09B909B90A0319BA0A0319BB0A1E
:100510000034BB01BA01B9010034B8013C08031929
:1005200000343B08C600BB179E30BC028A110A1279
:10053000BC1F072BBC09BC0A08303C028A110A12F6
:10054000031CD22ABC00B80D3908B8003A08B9001B
:100550003B08BA00BB0108303C028A110A12031C96
:10056000D22ABC00B80D3908B8003A08B900BA015F
:1005700008303C028A110A12031CD22ABC00B80DB2
:100580003908B800B90108303C028A110A12031C6C
:10059000D22ABC00B80DB8013C08031D03108A1113
:1005A0000A12E02A3C088A110A120319E02A0310F1
:1005B000BB0CBA0CB90CB80C8A110A12BC0BD72AA6
:1005C0008A110A12471B381CF42A8A110A12031CCA
:1005D000F42AB80A0319B90A0319BA0A0319BB0A9B
:1005E0008A110A12BB1BF829C61F0034BB09BA09BD
:1005F000B909B809B80A0319B90A0319BA0A0319DB
:10060000BB0A0034BB01BA01B901B8010034471478
:10061000C71FFF34BB01C61FFF30BB00BA00B900C3
:10062000B800C60DBB0CFF34B81F003403147F3074
:1006300038050319390C3B08C600BB170311031812
:10064000B90A0319BA0A0319BB0A8A110A12031D4F
:10065000312BBB0CBA0CB90CBC0A8A110A12031953
:10066000ED29C61FBB130034B701B601B5013B0825
:10067000C5003A08C4003908C3003808C200083071
:10068000C800BE0C8A110A120318632B8A110A12C1
:10069000C80B412BC800BF0C8A110A120318672B24
:1006A0008A110A12C80B4B2BC800C00C8A110A12FF
:1006B00003186B2B8A110A12C80B552BBB01BA0108
:1006C000B901B801003403108A110A12822B0310F9
:1006D0008A110A12A02B03108A110A12BF2BBE0C1A
:1006E0008A110A12031C822B4208B8074308031818
:1006F000430FB90744080318440FBA074508031805
:10070000450FBB07BB0CBA0CB90CB80CB70C8A115F
:100710000A12C80B6F2B0830C800BF0C8A110A12CE
:10072000031CA02B4208B80743080318430FB9075E
:1007300044080318440FBA0745080318450FBB07C0
:10074000BB0CBA0CB90CB80CB70CB60C8A110A1257
:10075000C80B8D2B0830C800C00C8A110A12031C6C
:10076000BF2B4208B80743080318430FB9074408D2
:100770000318440FBA0745080318450FBB07BB0C05
:10078000BA0CB90CB80CB70CB60CB50C8A110A121D
:10079000C80BAC2B0034B801B7013B08C5003A08C0
:1007A000C4003908C3000830C800BF0C8A110A12FF
:1007B0000318F02B8A110A12C80BD52BC800C00CE5
:1007C0008A110A120318EC2B8A110A12C80BDF2BAC
:1007D000BB01BA01B901003403108A110A121C2CA2
:1007E00003108A110A12032CBF0C8A110A12031C6F
:1007F000032C4308B90744080318440FBA074508F7
:100800000318450FBB07BB0CBA0CB90CB80C8A1106
:100810000A12C80BF42B0830C800C00C8A110A1247
:10082000031C1C2C4308B90744080318440FBA07DB
:1008300045080318450FBB07BB0CBA0CB90CB80C24
:10084000B70C8A110A12C80B0D2C00343B08400665
:10085000C5008A110A12C51B632C8A110A12BB1B20
:100860004A2C3C084102031C0034031D01343B08A0
:100870004002031C0034031D01343A083F02031CEC
:100880000034031D013439083E02031C0034031DEB
:100890000134003441083C02031C0034031D0134C0
:1008A00040083B02031C0034031D01343F083A0298
:1008B000031C0034031D01343E083902031C0034BC
:1008C000031D01340034C01F0134003441083C02D0
:1008D000031D003440083B02031D00343F083A0268
:1008E000031D00343E083902031D003401348030FA
:1008F000C0063B084006C500B801BD013C084102E6
:100900008A110A12031C9C2C4108B6003C08C10045
:100910003608BC004008B6003B08C0003608BB00E3
:100920003F08B6003A08BF003608BA003E08B600D5
:100930003908BE003608B9004108031900343B08E5
:10094000C600BB17C01741083C02C1008A110A1239
:100950000319DB2C083041028A110A12031CCD2C2A
:10096000C1003E08BD003F08BE004008BF00C001F6
:10097000083041028A110A12031CCD2CC1003E0826
:10098000BD003F08BE00BF01083041028A110A12B3
:10099000031CCD2C4608BB00003441088A110A1202
:1009A0000319DB2C0310C00CBF0CBE0CBD0C8A114C
:1009B0000A12C10BD22C8A110A12C51FEA2CBD09DA
:1009C000BE09BF09C009BD0A0319BE0A0319BF0A3F
:1009D0000319C00A3D08B8073E0803183E0FB907BF
:1009E0003F0803183F0FBA0740080318400FBB0722
:1009F0008A110A12C51B0B2D8A110A12031C0D2A1B
:100A0000BB0CBA0CB90CB80C8A110A12BC0F0D2A17
:100A10008A110A12ED298A110A120318A329B809AA
:100A2000B909BA09BB09B80A0319B90A0319BA0AFC
:100A30000319BB0A8030C6068A110A125F293C08D6
:100A4000031D41088A110A120319072A3B084006B0
:100A5000C6004108BC077E308A110A12031C382DDB
:100A6000BC028A110A120318ED298A110A123D2DBF
:100A7000BC028A110A12031CE2293B08B8003A089A
:100A8000B7003908B600B817C0170310BB01BA0188
:100A9000B9011830C5008A110A12361C592D3E08BA
:100AA000B9073F0803183F0FBA0740080318400F63
:100AB000BB07BB0CBA0CB90CB80CB70CB60C0310C6
:100AC0008A110A12C50B4B2D8A110A12BB1B6D2D00
:100AD000B80DB90DBA0DBB0DBC038A110A12471B24
:100AE000391C872D8A110A12B81F872DB90A0319DC
:100AF000BA0A0319BB0A8A110A12031D872DBB0CFF
:100B0000BA0CB90CBC0A8A110A120319ED29C61FC6
:100B1000BB13003441088A110A1203192C2E3C0819
:100B20008A110A120319072A3B084006C600BB17A0
:100B3000C017C5013B08B8003A08B7003908B6002D
:100B40003E08B6023F08031C3F0FB7024008031CD3
:100B5000400FB802B801B701B6018A110A12031C8E
:100B6000B82D0310BB0CBA0CB90CB80C0130C50081
:100B70004108BC028A110A12031CC82D7E304507A9
:100B8000BC078A110A120318ED298A110A12CF2D07
:100B90007E304507BC078A110A12031CE22918306F
:100BA000C400B60DB70DB80DB90DBA0DBB0DC50D0E
:100BB0003E08B9023F08031C3F0FBA024008031C5D
:100BC000400FBB02400DC5048A110A12451CEC2DD2
:100BD00036148A110A12F72D3E08B9073F08031888
:100BE0003F0FBA0740080318400ABB0736108A11A6
:100BF0000A12C40BD12D8A110A12471B361C232E50
:100C00000310B90DBA0DBB0DC50D3E08B9023F0862
:100C1000031C3F0FBA024008031C400FBB02400DEB
:100C200045040139B6070318B70A0319B80A8A112F
:100C30000A12031D232EB80CB70CB60CBC0A8A117D
:100C40000A120319ED29C61FB8133808BB0037086C
:100C5000BA003608B9000034C715FF34B8018A114C
:100C60000A12BB1B932F3C088A110A120319932FF7
:100C70004708D20047133C08D7007E30D702BC009B
:100C8000F33039020430C500031C450F3A023530F9
:100C9000C500031C450F3B028A110A12031C5B2E80
:100CA0007F30C100C001BF01BE018A110A12772442
:100CB0008A110A12652EBC0A7F30C100C001BF0133
:100CC000BE018A110A127724D7033C08CE003B08E4
:100CD000CF003A08D0003908D1008030C10055302B
:100CE000C0005F30BF007230BE008A110A12792442
:100CF0004E08C1004F08C0005008BF005108BE0098
:100D00008A110A121F258030C1001F30C000F53043
:100D1000BF00C630BE008A110A1279243C08C900FF
:100D20003B08CA003A08CB003908CC004E08BC008A
:100D30004F08BB005008BA005108B9007D30C1000F
:100D40007930C0001230BF008A30BE008A110A120A
:100D50001F257E30C1005530C0004630BF00F63040
:100D6000BE008A110A1279244908C1004A08C0004D
:100D70004B08BF004C08BE008A110A128A253C08A5
:100D8000C9003B08CA003A08CB003908CC004E081D
:100D9000C1004F08C0005008BF005108BE004E08F7
:100DA000BC004F08BB005008BA005108B9008A11B6
:100DB0000A121F253C08D3003B08D4003A08D5008E
:100DC0003908D6004908C1004A08C0004B08BF00D6
:100DD0004C08BE008A110A121F254E08C1004F0898
:100DE000C0005008BF005108BE008A110A121F251A
:100DF0005408C0005508BF005608BE005308C10083
:100E0000031DC1038A110A1277248A110A121423BE
:100E10004E08C1004F08C0005008BF005108BE0076
:100E20008A110A1279248A110A12521B14235708B4
:100E30008A110A12031D1D2F00348A110A1214236D
:100E40003C08D3003B08D4003A08D5003908D60046
:100E5000BB015708BA00BA1BBB098A150A121A202F
:100E6000B9013C08CE003B08CF003A08D000390851
:100E7000D100BB170C30BC02DE30C0008030BF0098
:100E80008330BE008A110A1295278A110A12BB1BF1
:100E90004E2FB80DB90DBA0DBB0DBC03CF1BBB1344
:100EA0008A110A1214235308C1005408C0005508BF
:100EB000BF005608BE008A110A1279248A110A124C
:100EC00014233C08D3003B08D4003A08D500390865
:100ED000D600B130C0008030BF004E08BC004F08C3
:100EE000BB005008BA005108B900BB178A110A129A
:100EF000CB238A110A12BB1B822FB80DB90DBA0D74
:100F0000BB0DBC03CF1FBB135308C1005408C00066
:100F10005508BF005608BE008A110A1279248A11AA
:100F20000A12521B142BC716FF34B801B701B601C1
:100F30003B08C5003A08C4003908C3000830C8009F
:100F4000BE0C8A110A120318C92F8A110A12C80B83
:100F5000A02FC800BF0C8A110A120318C52F8A11CE
:100F60000A12C80BAA2FC800C00C8A110A12031853
:100F7000C12F8A110A12C80BB42FBB01BA01B901E3
:100F8000003403108A110A120F2803108A110A1262
:100F9000F52F03108A110A12DC2FBE0C8A110A12D7
:100FA000031CDC2F4308B90744080318440FBA0791
:100FB00045080318450FBB07BB0CBA0CB90CB80C9D
:100FC0008A110A12C80BCD2F0830C800BF0C8A1135
:100FD0000A12031CF52F4308B90744080318440FED
:100FE000BA0745080318450FBB07BB0CBA0CB90C70
:100FF000B80CB70C8A110A12C80BE62F0830C800CB
:10100000C00C8A110A12031C0F284308B9074408B0
:101010000318440FBA0745080318450FBB07BB0C5C
:10102000BA0CB90CB80CB70CB60C8A150A12C80B5E
:10103000002800348E30BC003B08C6008A150A1216
:10104000BB1F2728BA09BB09BA0A0319BB0AC50185
:101050003B088A150A12031D35283A08BB008A1579
:101060000A1203194D28BA01C5154508BC028A1594
:101070000A12031D031C522803108A150A12BB1BF7
:101080004A28BA0DBB0D8A150A12BC0B3D288A15D9
:101090000A125228C61FBB130034BB01BA01B901A2
:1010A000BC0100344715C71FFF340130BC00BB0131
:1010B000BA01C60DBB0CFF345E303C02C5008A1578
:1010C0000A12C51BA3298A150A12BB1B8E283C08CD
:1010D000853C8A150A12031CAA298A150A12031DC7
:1010E000B2283B08313C8A150A12031CAA298A152A
:1010F0000A12031DB2283A08723C8A150A12031C10
:10110000AA298A150A12031DB2283908183C8A1523
:101110000A12031CAA298A150A12B2283C08853C27
:101120008A150A12031CAA298A150A12031DB2285D
:101130003B08AE3C8A150A12031CAA298A150A121A
:10114000031DB2283A08AC3C8A150A12031CAA29CE
:101150008A150A12031DB2283908503C8A150A1252
:10116000031CAA294708D20047138A150A12AC218A
:101170008A150A12CF1B2D297830C1002230C000F9
:101180003130BF003F30BE008A110A121F257A306D
:10119000C1002830C0002130BF004A30BE008A1193
:1011A0000A1279244E08C1004F08C0005008BF0041
:1011B0005108BE008A110A121F257C30C1002A3056
:1011C000C000C730BF00AF30BE008A110A127924B8
:1011D0004E08C1004F08C0005008BF005108BE00B3
:1011E0008A110A121F257D30C1007F30C000FE30F9
:1011F000BF00D730BE008A110A1279244E08C10000
:101200004F08C0005008BF005108BE008A110A12E2
:101210001F257F30C1000030C0000030BF00023009
:10122000BE008A110A1279244E08C1004F08C0007E
:101230005008BF005108BE008A110A121F257F30D6
:10124000C1000030C0000030BF000030BE008A1175
:101250000A1279245708BC0700347730C100653082
:10126000C0005F30BF00E930BE008A110A121F259E
:101270007A30C1002830C0009230BF000530BE0077
:101280008A110A1279244E08C1004F08C000500884
:10129000BF005108BE008A110A121F257C30C10010
:1012A0002A30C0009230BF007430BE008A110A128A
:1012B00079244E08C1004F08C0005008BF005108F3
:1012C000BE008A110A121F257D30C1007F30C00088
:1012D000FF30BF000030BE008A110A1279244E0888
:1012E000C1004F08C0005008BF005108BE008A115D
:1012F0000A121F257E30C1007F30C000FF30BF00C2
:10130000FC30BE008A110A1279244E08C1004F0831
:10131000C0005008BF005108BE008A110A121F25E4
:101320007F30C1000030C0000030BF000030BE0080
:101330008A110A1279245708BC07521F0034471734
:101340008A110A12142B7F30BC00BB01BA01B9010B
:10135000B8010034C716FF343C08C9003B08CA0076
:101360003A08CB003908CC00BB173B08C0003A084C
:10137000BF003908BE00B830BB00AA30BA003B300D
:10138000B9002930B8008A110A123423BC0A8A1520
:101390000A12BB1BD029B80DB90DBA0DBB0DBC0389
:1013A000CA1FBB138A110A1214237E30C100C00168
:1013B000BF01BE018A110A1279248A150A12542229
:1013C0003C08D3008A150A120319462A3B08D400A8
:1013D0003A08D5003908D6007E30C100B130C000CF
:1013E0008030BF00BE018A110A121F254908C100C2
:1013F0004A08C0004B08BF004C08BE008A110A1200
:1014000079243C08CE003B08CF003A08D0003908C8
:10141000D1007230C1005E30C0008030BF00833028
:10142000BE005308BC005408BB005508BA0056085B
:10143000B9008A110A121F254E08C1004F08C000CA
:101440005008BF005108BE008A110A1279248A117F
:101450000A1214233C08CE003B08CF003A08D00003
:101460003908D1005308BC005408BB005508BA0025
:101470008A150A120D233A08D7004E08BC004F08FF
:10148000BB005008BA005108B90000344908CE002A
:10149000BC004A08CF00BB004B08D000BA004C0883
:1014A000D100B900D7010034B8013C080319003459
:1014B0003B08B7003A08B6003908B5007F303C0257
:1014C000C4008A150A12C41BF32A173CC500C400C5
:1014D0008A150A12441AC32A8A150A12C419972AAD
:1014E0000730C5050330C5070B300318013E8A00DD
:1014F000450A0323B905BB1F0034B400350839027F
:101500008A150A12031D852A00343409C400440ACE
:10151000B9070319BA0A0319BB0A031D0034BB0C2F
:10152000BA0CB90CBC0F00348A110A12ED2907302D
:10153000C5050330C5070B300318013E8A00450A74
:101540000323BA05B901BB1F0034B40035083902C2
:101550008A150A12031DB32A36083A028A150A129E
:10156000031DB32A00343409C400440ABA0703191E
:10157000BB0A031D0034BB0CBA0CB90CBC0F003401
:101580008A110A12ED290730C5050330C5070B3053
:101590000318013E8A00450A0323BB05BA01B901BD
:1015A000BB1F0034B400350839028A150A12031D26
:1015B000E62A36083A028A150A12031DE62A370877
:1015C0003B028A150A12031DE62A00343409C400BE
:1015D000440ABB07031C0034BB0CBA0CBC0F00341C
:1015E0008A110A12ED298A150A12BB1BFC2ABC01BA
:1015F000BB01BA01B90100347F30BC008030BB00B0
:10160000BA01B90100348200FF34FE34FC34F834EE
:10161000F034E034C034803400343C080319003422
:101620003B08C600BB178E30BC028A150A12BC1FCD
:10163000592BBC09BC0A08303C028A150A12031C4B
:10164000352BBC00BA0D3B08BA00BB0108303C0288
:101650008A150A12031C352BBC00BA0DBA013C08CE
:10166000031D03108A150A12412B3C088A150A1221
:101670000319412B0310BB0CBA0C8A150A12BC0BC0
:101680003A2B8A150A12471B3A1C512B8A150A124B
:10169000031C512BBA0A0319BB0A8A150A12BB1B79
:1016A000592BC61F0034BA09BB09BA0A0319BB0A71
:1016B00000344714C71FFF34BB01C61FFF30BB00F7
:1016C000BA00C60DBB0CFF345A30EA0069108A1507
:1016D0000A12E71F712BE713FD30AC008A150A12BE
:1016E0002D246508B9006608BA006708BB006808C1
:1016F000BC008A110A128D223808A0003908A10006
:101700003A08A2003B08A3002008B8002108B9004D
:101710002208BA002308BB008A110A129021390856
:10172000BE003A08BF003B08C0003C08C100650885
:10173000B9006608BA006708BB006808BC008A11D7
:101740000A1277243908E5003A08E6003B08E7006A
:101750003C08E800BE01BF017A30C0008830C100FB
:101760006508B9006608BA006708BB006808BC00D5
:101770008A110A121F253908E5003A08E6003B08DD
:10178000E7003C08E8008A150A12E323FE30AC00AB
:101790008A150A122D2469146508B9006608BA0072
:1017A0006708BB006808BC008A110A128D2238083D
:1017B000A0003908A1003A08A2003B08A3008A153E
:1017C0000A12092408004030A4004230A5000F305E
:1017D000A600A7018A150A122024A030A400863092
:1017E000A5000130A600A7018A150A122024103096
:1017F000A4002730A500A601A7018A150A122024FB
:10180000E830A4000330A500A601A7018A150A123A
:1018100020246430A400A501A601A7018A150A129C
:1018200020240A30A400A501A601A7018A150A12E6
:1018300020242008AC008A150A122D2480010800FB
:101840008A110A1290202C088A150A120319292CD1
:1018500069148A150A12691C362C83136A088400DD
:101860002C08303E8000840A0408EA000800C70102
:1018700083161930990007178717243098008312B0
:101880009030980001308316850083120230831651
:101890009F00831288118810081183168811881000
:1018A0000811860183126430A000A1018A110A1276
:1018B00005203330FE203330FE203330FE20383018
:1018C000FE200D30FE200130FE208A110A12503019
:1018D000FE200030F1200030F1200030F1201C30DB
:1018E000F1200430F1201C30F1201030F1201C30A8
:1018F000F1200230FE208316A001A101A201A30164
:101900008312F601F701F801F901F201F301F40184
:10191000F501EE01EF01F001F101FA01FB01FC011B
:10192000FD0183169F171F138312A0018A110A124B
:10193000E02083161E08A00083121E088316A10053
:10194000A201A3018312BE01BF01C0018930C10001
:10195000B901BA012030BB008130BC008A110A12E3
:101960008A253908F6003A08F7003B08F8003C08D9
:10197000F9007608BE007708BF007808C000790833
:10198000C100831620088312B80083162108831231
:10199000B900831622088312BA0083162308831223
:1019A000BB008A110A1290218A110A121F253908D8
:1019B000F6003A08F7003B08F8003C08F900760802
:1019C000BE007708BF007808C0007908C100B901DF
:1019D000BA012030BB008130BC008A110A12772482
:1019E0003908F2003A08F3003B08F4003C08F5001F
:1019F0007608BE007708BF007808C0007908C100EB
:101A00007208B9007308BA007408BB007508BC00FE
:101A10008A110A128A253908F2003A08F3003B08B5
:101A2000F4003C08F500BE01BF012030C000823048
:101A3000C1007208B9007308BA007408BB007508C9
:101A4000BC008A110A121F253908F2003A08F30077
:101A50003B08F4003C08F5004330BE001930BF00DD
:101A60000530C0009E30C1007208B9007308BA008A
:101A70007408BB007508BC008A110A128A2539084F
:101A8000FA003A08FB003B08FC003C08FD007A081D
:101A9000B9007B08BA007C08BB007D08BC008A1135
:101AA0000A122E263908FA003A08FB003B08FC000F
:101AB0003C08FD008530BE00EB30BF007E30C0002A
:101AC0009D30C1007A08B9007B08BA007C08BB00D1
:101AD0007D08BC008A110A1277243908EE003A0802
:101AE000EF003B08F0003C08F1007130BE003D30D3
:101AF000BF007D30C0009D30C1006E08B9006F0886
:101B0000BA007008BB007108BC008A110A128A254D
:101B10003908EE003A08EF003B08F0003C08F100FD
:101B20006E08B9006F08BA007008BB007108BC00ED
:101B30008A150A125C203908EE003A08EF003B08CB
:101B4000F0003C08F1008A110A12433011216F3075
:101B500011216E30112163301121653011216E3059
:101B60001121743011217230112161301121743032
:101B70001121693011216F3011216E301121203077
:101B80001121433011214F301121323011213A30CF
:101B90001121203011216E08E5006F08E600700861
:101BA000E7007108E80064238A110A121B210D3036
:101BB00011210A3011211B30ED008316071083120A
:101BC00007140730EB000130EC008A110A12433091
:101BD00024216F3024216E3024216330242165308C
:101BE00024216E302421743024217230242161306C
:101BF000242174302421693024216F3024216E3057
:101C0000242120302421433024214F30242132301C
:101C100024213A302421203024216E08E5006F0869
:101C2000E6007008E7007108E80064238A110A12D0
:101C300044210D3024210A3024218A110A12203037
:101C4000F1202030F1202030F1204330F1206F309E
:101C5000F1206E30F1206330F1202E30F120203061
:101C6000F1204330F1204F30F1200230F1203A30A2
:101C7000F1202030F1208A110A12C030FE208A158E
:101C80000A126E08E5006F08E6007008E7007108A8
:101C9000E80064238A110A1208212030F1207030F4
:101CA000F1207030F1206D30F1206E08BE006F0819
:101CB000BF007008C0007108C100B901BA017A30D4
:101CC000BB008830BC008A110A12262401398A150B
:101CD0000A120319292F85148A110A12CF301121F3
:101CE000D0301121C5301121C2301121DB3011213A
:101CF000D8301121C5301121CD301121C83011212A
:101D0000C530112120301121C4301121CE301121D4
:101D1000CF301121D3301121D1301121D2301121F6
:101D2000C8301121CC301121CE301121C930112100
:101D300020301121CA301121CE301121CD30112196
:101D4000D6301121C5301121CD301121D2301121D1
:101D5000D0301121C0301121D6301121C8301121CD
:101D6000C830112120301121433011214F30112171
:101D70003230112121301121213011212130112146
:101D80000D3011210A3011211B30ED008316071090
:101D9000831207140730EB000130EC008A110A129D
:101DA000CF302421D0302421C5302421C230242139
:101DB000DB302421D8302421C5302421CD3024210A
:101DC000C8302421C530242120302421C4302421CE
:101DD000CE302421CF302421D3302421D1302421EE
:101DE000D2302421C8302421CC302421CE302421EB
:101DF000C930242120302421CA302421CE3024218E
:101E0000CD302421D6302421C5302421CD302421C9
:101E1000D2302421D0302421C0302421D6302421B6
:101E2000C8302421C83024212030242143302421EB
:101E30004F3024213230242121302421213024210B
:101E4000213024210D3024210A3024218A150A1240
:101E50002A2F85106430A000A1018A110A120520E2
:101E60008A110A120130FE208A150A12912C8A1555
:041E70000A12392FEA
:02400E00713F00
:00000001FF
